:040000003BEF07F0DB
:10080000005069657277737A61206C696E69610066
:100810004472756761206C696E696100000020EEAA
:1008200052F010EE04F0080EDECFE6FFE82EFCD703
:1008300020EE60F010EE0CF0080EDECFE6FFE82EA2
:10084000FCD720EE68F010EE14F0080EDECFE6FFC5
:10085000E82EFCD720EE70F010EE1CF0080EDECF74
:10086000E6FFE82EFCD720EE78F010EE24F0080E1C
:10087000DECFE6FFE82EFCD720EE80F010EE2CF065
:10088000080EDECFE6FFE82EFCD720EE88F010EE53
:1008900034F0080EDECFE6FFE82EFCD720EE90F015
:1008A00010EE3CF0080EDECFE6FFE82EFCD7400E3F
:1008B00075EC06F0000E446E0CD04450010D040E91
:1008C000F324D96E000EF420DA6EDF50F0EC05F060
:1008D000442A070E4464F1D7480E75EC06F0000E6A
:1008E000456E0CD04550010D0C0EF324D96E000E50
:1008F000F420DA6EDF50F0EC05F0452A070E45646F
:10090000F1D7500E75EC06F0000E466E0CD0465036
:10091000010D140EF324D96E000EF420DA6EDF50B0
:10092000F0EC05F0462A070E4664F1D7580E75EC38
:1009300006F0000E476E0CD04750010D1C0EF3243C
:10094000D96E000EF420DA6EDF50F0EC05F0472A85
:10095000070E4764F1D7600E75EC06F0000E486E86
:100960000CD04850010D240EF324D96E000EF42053
:10097000DA6EDF50F0EC05F0482A070E4864F1D734
:10098000680E75EC06F0000E496E0CD04950010D52
:100990002C0EF324D96E000EF420DA6EDF50F0EC4A
:1009A00005F0492A070E4964F1D7700E75EC06F080
:1009B000000E4A6E0CD04A50010D340EF324D96E4D
:1009C000000EF420DA6EDF50F0EC05F04A2A070E34
:1009D0004A64F1D7780E75EC06F0000E4B6E0CD021
:1009E0004B50010D3C0EF324D96E000EF420DA6E4C
:1009F000DF50F0EC05F04B2A070E4B64F1D71200E4
:100A0000000E0001996F000E0001986F00019951CE
:100A1000800AF36E800EF35C0B0ED8B4985DD8A0FC
:100A20000CD0C30E516ECD0EE82EFED7512EFCD742
:100A300000F00001984B992BE9D7A5EC07F00C0EBC
:100A400075EC06F0280E75EC06F00FEC04F0C0EC27
:100A500007F0000E0001A66F0CD0010E046E00011D
:100A6000A65162EC07F00001A651F0EC05F0000180
:100A7000A62B070E0001A665F0D7000E00019B6FA4
:100A8000000E00019A6F00019B51800A800FC80E72
:100A9000D8B49A5DD8B00CD0410E516EEE0EE82E4F
:100AA000FED7512EFCD700D000019A4B9B2BEBD7E1
:100AB000010E046E080E066E010E056E000EF9ECB6
:100AC00006F0020E046E080E066E100E056E000E85
:100AD000F9EC06F0000E00019D6F000E00019C6F06
:100AE00000019D51800A800FC80ED8B49C5DD8B01B
:100AF0000CD0410E516EEE0EE82EFED7512EFCD7D3
:100B000000D000019C4B9D2BEBD7000E0001A46F81
:100B100020D0180E75EC06F0000E00019F6F000E3D
:100B200000019E6F00019F51800A800F1E0ED8B4F5
:100B30009E5DD8B00CD0410E516EEE0EE82EFED761
:100B4000512EFCD700D000019E4B9F2BEBD700010C
:100B5000A42B0F0E0001A465DCD7000E0001A56FC9
:100B600020D01C0E75EC06F0000E0001A16F000EE7
:100B70000001A06F0001A151800A800F1E0ED8B4A1
:100B8000A05DD8B00CD0410E516EEE0EE82EFED70F
:100B9000512EFCD700D00001A04BA12BEBD70001B8
:100BA000A52B0F0E0001A565DCD7000E0001A36F79
:100BB000000E0001A26F0001A351800A800FC80E31
:100BC000D8B4A25DD8B043D7410E516EEE0EE82ED8
:100BD000FED7512EFCD700D00001A24BA32BEBD7A0
:100BE000036E8A848A86016A03AE01D0012A010E4F
:100BF0000116013201328A5001187F0B01188A6EEA
:100C000003C001F0060E026ED8900132022EFCD70E
:100C1000010E0116013A014601468A500118BF0B28
:100C200001188A6E03C001F0050E026ED8900132E1
:100C3000022EFCD7010E0116013A01468A50011816
:100C4000DF0B01188A6E03C001F0013A0F0E011686
:100C5000010E0116013A8A500118EF0B01188A6E35
:100C60008A968A8603C001F0D8900132D89001326A
:100C7000D8900132010E0116013201328A5001185A
:100C80007F0B01188A6E03C001F0D8900132D89012
:100C90000132010E0116013A014601468A5001183F
:100CA000BF0B01188A6E03C001F0D8900132010E0B
:100CB0000116013A01468A500118DF0B01188A6EAD
:100CC00003C001F0010E0116013A8A500118EF0B22
:100CD00001188A6E8A968A94210E016E760EE82E8D
:100CE000FED7012EFCD700D01200036E8A948A86AC
:100CF000016A03AE01D0012A010E01160132013250
:100D00008A5001187F0B01188A6E03C001F0060E8D
:100D1000026ED8900132022EFCD7010E0116013A64
:100D2000014601468A500118BF0B01188A6E03C0A4
:100D300001F0050E026ED8900132022EFCD7010E92
:100D40000116013A01468A500118DF0B01188A6E1C
:100D500003C001F0013A0F0E0116010E0116013A0F
:100D60008A500118EF0B01188A6E8A968A8603C092
:100D700001F0D8900132D8900132D8900132010EA2
:100D80000116013201328A5001187F0B01188A6E58
:100D900003C001F0D8900132D8900132010E011643
:100DA000013A014601468A500118BF0B01188A6EAC
:100DB00003C001F0D8900132010E0116013A01463C
:100DC0008A500118DF0B01188A6E03C001F0010E72
:100DD0000116013A8A500118EF0B01188A6E8A96A3
:100DE000210E016E760EE82EFED7012EFCD700D024
:100DF00012000A6E020E75EC06F00450020AD8A426
:100E000004D0C00E75EC06F003D0020E75EC06F0AF
:100E1000000E0C6E000E0B6E05D0140E75EC06F075
:100E20000B4A0C2A0A50076E086A0C50800A096E99
:100E300007500B5C0850800A0958D8B012D0EDD783
:100E400005C0F6FF06C0F7FF0800F550F0EC05F00E
:100E5000054A062A0D0E076EFC0EE82EFED7072E59
:100E6000FCD705C0F6FF06C0F7FF0800F5500009E3
:100E7000D8B41200E5D7120EF66E0F0EF76E000E04
:100E8000F86E00EE60F010EE38F00900F5CFEEFFDE
:100E9000E550E150FAE18E0EF66E0F0EF76E000E81
:100EA000F86E00EE52F010EE08F00900F5CFEEFFFC
:100EB000E550E150FAE1000EF86E080EF76E000101
:100EC00000EF05F0086E020E75EC06F00450020A01
:100ED000D8A404D0C00E75EC06F003D0020E75EC59
:100EE00006F0000E0A6E000E096E05D0140E75ECA9
:100EF00006F0094A0A2A0850056E066A0A50800A56
:100F0000076E0550095C0650800A0758D8B01200D9
:100F1000EDD700000E010F110F0200000E111F107F
:100F20000E0202040E1010110E000C04060C040434
:100F30000E00020416191111110002040E111111F4
:100F40000E0002040E100E011E00939E939C939AB5
:100F50009398939693948A9E8A9C8A9A8A988A9662
:100F60008A948A868A9E8A9C8A8A8A988A96210E80
:100F7000016E760EE82EFED7012EFCD700D01200AF
:100F8000010E75EC06F00C0E75EC06F012000C125A
:060F9000120C000000003D
:020000040020DA
:08000000FFFFFFFFFFFFFFFF00
:020000040030CA
:0E000000240E381EFF8181FF0FC00FE00F405D
:00000001FF
