:0400000078EF3FF066
:107EF0000001A6EF3FF0C5CF01F01F0E0116D8B468
:107F0000C7B4F9D71200026E3F0EC716000EC66E38
:107F1000000EC56E0250C6120150C71293829380A4
:107F2000C68A1200C6CF01F00F0E01160150080AD2
:107F3000D8B407D0C6CF01F00F0E011601500B0ABE
:107F4000D8B4C586C7A0FED7C9501200800E016EF6
:107F5000080E83EC3FF0310EC86E710E096E9290E0
:107F60007BEC3FF0C580C5B0FED77BEC3FF00950FD
:107F7000CEEC3FF07BEC3FF092EC3FF00A6EC58A0E
:107F8000C588C5B8FED7C584C5B4FED70A507F0AD8
:107F9000D8A402D08980E4D78990E2D7036E03C0C9
:107FA000C9FFC6BE2CD0C6CF02F00F0E021602507B
:107FB000080AD8B40FD0C6CF02F00F0E0216025036
:107FC0000B0AD8B407D0C6889EA6FED7C7B417D070
:107FD000C75015D0C6CF02F00F0E02160250080A85
:107FE000D8B408D0C6CF02F00F0E021602500B0A0A
:107FF000D8A405D0C7B0FED77BEC3FF0C550120027
:020000040020DA
:08000000FFFFFFFFFFFFFFFF00
:020000040030CA
:0E000000240E381EFF8181FF0FC00FE00F405D
:00000001FF
