:040000008FEF3EF050
:107D1E000001DBEF3EF0C5CF01F01F0E0116D8B407
:107D2E00C7B4F9D71200026E3F0EC716000EC66E0C
:107D3E00000EC56E0250C6120150C7129382938078
:107D4E00C68A1200036E03C0C9FFC6BE2CD0C6CFB2
:107D5E0002F00F0E02160250080AD8B40FD0C6CF8A
:107D6E0002F00F0E021602500B0AD8B407D0C688C6
:107D7E009EA6FED7C7B417D0C75015D0C6CF02F0F7
:107D8E000F0E02160250080AD8B408D0C6CF02F061
:107D9E000F0E021602500B0AD8A405D0C7B0FED79C
:107DAE0092EC3EF0C5501200700E126E800E016EF7
:107DBE00080E9AEC3EF0310EC86E92EC3EF0C58085
:107DCE00C5B0FED792EC3EF01250A9EC3EF092EC0C
:107DDE003EF0010EA9EC3EF092EC3EF0C584C5B427
:107DEE00FED7000E0A6E09D0410E096EEE0EE82E79
:107DFE00FED7092EFCD700D00A2A270E0A64F4D724
:107E0E0092EC3EF0C580C5B0FED792EC3EF012501B
:107E1E00A9EC3EF092EC3EF0020EA9EC3EF092EC94
:107E2E003EF0C584C5B4FED7000E0B6E09D0410ED0
:107E3E00096EEE0EE82EFED7092EFCD700D00B2AC7
:107E4E00270E0B64F4D792EC3EF0C580C5B0FED77A
:107E5E0092EC3EF01250A9EC3EF092EC3EF0040E85
:107E6E00A9EC3EF092EC3EF0C584C5B4FED7000EF0
:107E7E000C6E09D0410E096EEE0EE82EFED7092EBD
:107E8E00FCD700D00C2A270E0C64F4D792EC3EF0EF
:107E9E00C580C5B0FED792EC3EF01250A9EC3EF074
:107EAE0092EC3EF0080EA9EC3EF092EC3EF0C5844A
:107EBE00C5B4FED7000E0D6E09D0410E096EEE0E42
:107ECE00E82EFED7092EFCD700D00D2A270E0D6402
:107EDE00F4D792EC3EF0C580C5B0FED792EC3EF0E2
:107EEE001250A9EC3EF092EC3EF0100EA9EC3EF0D2
:107EFE0092EC3EF0C584C5B4FED7000E0E6E09D0CE
:107F0E00410E096EEE0EE82EFED7092EFCD700D0DC
:107F1E000E2A270E0E64F4D792EC3EF0C580C5B043
:107F2E00FED792EC3EF01250A9EC3EF092EC3EF0F1
:107F3E00200EA9EC3EF092EC3EF0C584C5B4FED7FF
:107F4E00000E0F6E09D0410E096EEE0EE82EFED712
:107F5E00092EFCD700D00F2A270E0F64F4D792EC0F
:107F6E003EF0C580C5B0FED792EC3EF01250A9ECA3
:107F7E003EF092EC3EF0400EA9EC3EF092EC3EF05C
:107F8E00C584C5B4FED7000E106E09D0410E096E21
:107F9E00EE0EE82EFED7092EFCD700D0102A270EA3
:107FAE001064F4D792EC3EF0C580C5B0FED792ECCB
:107FBE003EF01250A9EC3EF092EC3EF0800EA9EC91
:107FCE003EF092EC3EF0C584C5B4FED7000E116EA5
:107FDE00270E116401D0F1D6410E096EEE0EE82E79
:107FEE00FED7092EFCD700D0112A270E1164F4D724
:027FFE00E4D6C7
:020000040020DA
:08000000FFFFFFFFFFFFFFFF00
:020000040030CA
:0E000000240E381EFF8181FF0FC00FE00F405D
:00000001FF
