:040000004DEF3EF092
:107C94008980899012000001D9EF3EF0036E8A9C1E
:107CA40003C001F0010E0116013201328A5001189D
:107CB4007F0B01188A6E4AEC3EF003C001F0D890A5
:107CC4000132010E0116013201328A5001187F0B74
:107CD40001188A6E4AEC3EF003C001F0D8900132DC
:107CE400D8900132010E0116013201328A50011876
:107CF4007F0B01188A6E4AEC3EF003C001F0D89065
:107D04000132D8900132D8900132010E01160132AD
:107D140001328A5001187F0B01188A6E4AEC3EF03A
:107D240003C001F0013A0F0E0116010E01160132D3
:107D340001328A5001187F0B01188A6E4AEC3EF01A
:107D440003C001F0050E026ED8900132022EFCD75A
:107D5400010E0116013201328A5001187F0B0118FD
:107D64008A6E4AEC3EF003C001F0060E026ED89013
:107D74000132022EFCD7010E0116013201328A5063
:107D840001187F0B01188A6E4AEC3EF0016A03AEBB
:107D940001D0012A010E0116013201328A50011864
:107DA4007F0B01188A6E4AEC3EF08A8C1200939E77
:107DB4009290939C800E50EC3EF0000E0A6E09D017
:107DC400410E096EEE0EE82EFED7092EFCD700D028
:107DD4000A2A090E0A64F4D7C00E50EC3EF0000ED5
:107DE4000B6E09D0410E096EEE0EE82EFED7092E59
:107DF400FCD700D00B2A090E0B64F4D7E00E50EC2C
:107E04003EF0000E0C6E09D0410E096EEE0EE82E07
:107E1400FED7092EFCD700D00C2A090E0C64F4D727
:107E2400F00E50EC3EF0000E0D6E09D0410E096EBE
:107E3400EE0EE82EFED7092EFCD700D00D2A090E2F
:107E44000D64F4D7F80E50EC3EF0000E0E6E09D01F
:107E5400410E096EEE0EE82EFED7092EFCD700D097
:107E64000E2A090E0E64F4D7FC0E50EC3EF0000E00
:107E74000F6E09D0410E096EEE0EE82EFED7092EC4
:107E8400FCD700D00F2A090E0F64F4D7FE0E50EC75
:107E94003EF0000E106E09D0410E096EEE0EE82E73
:107EA400FED7092EFCD700D0102A090E1064F4D78F
:107EB400FF0E50EC3EF0000E116E09D0410E096E1B
:107EC400EE0EE82EFED7092EFCD700D0112A090E9B
:107ED4001164F4D77F0E50EC3EF0000E126E09D000
:107EE400410E096EEE0EE82EFED7092EFCD700D007
:107EF400122A090E1264F4D73F0E50EC3EF0000E25
:107F0400136E09D0410E096EEE0EE82EFED7092E2F
:107F1400FCD700D0132A090E1364F4D71F0E50ECBB
:107F24003EF0000E146E09D0410E096EEE0EE82EDE
:107F3400FED7092EFCD700D0142A090E1464F4D7F6
:107F44000F0E50EC3EF0000E156E09D0410E096E76
:107F5400EE0EE82EFED7092EFCD700D0152A090E06
:107F64001564F4D7070E50EC3EF0000E166E09D0DF
:107F7400410E096EEE0EE82EFED7092EFCD700D076
:107F8400162A090E1664F4D7030E50EC3EF0000EC8
:107F9400176E09D0410E096EEE0EE82EFED7092E9B
:107FA400FCD700D0172A090E1764F4D7010E50EC41
:107FB4003EF0000E186E09D0410E096EEE0EE82E4A
:107FC400FED7092EFCD700D0182A090E1864F4D75E
:107FD400000E50EC3EF0000E196E090E196401D02B
:107FE400E9D6410E096EEE0EE82EFED7092EFCD717
:0C7FF40000D0192A090E1964F4D7DCD65D
:020000040020DA
:08000000FFFFFFFFFFFFFFFF00
:020000040030CA
:0E000000240E381EFF8181FF0FC00FE00F405D
:00000001FF
