:0400000060EF14F0A9
:1008000000010000000A00000064000000E803008E
:100810000010270000A086010040420F008096983B
:100820000000E1F50500CA9A3B00803FCDCC3DD7E2
:10083000233C12833AB7D138C62737388635C0D61D
:1008400033CC2B32708930E7DB2EE53C1E42A20D03
:1008500000803F00204100C842007A44401C4650BE
:10086000C34724744997184BBCBE4C6B6E4E03159E
:100870005079AD60F34971202020202020202020D5
:100880002020202000252E326600583D2000593DB2
:1008900020005A3D20000000000E0001A86F440E09
:1008A0000001A76FF1D30001C251250AD8B408D0C6
:1008B00040C0D9FF41C0DAFF0001C2C0DFFFE2D370
:1008C000000E0001B26F000E0001B16F42C0F6FFD2
:1008D00043C0F7FF0800F5502E0AD8A433D000011A
:1008E000B28D424A432A000E0001BE6F000E000185
:1008F000BD6F1DD0BDC00FF0BEC010F0000E126E57
:100900000A0E116E89EC14F042C0F6FF43C0F7FFE7
:100910000800F5500F26000E1022D00E0F24000103
:10092000BD6FFF0E10200001BE6F424A432A42C035
:10093000F6FF43C0F7FF0800F550AFEC14F0D8A065
:100940000DD0D8D7000E0001BE6F000E0001BD6FA4
:100950000001B28903D00001B28513D042C0F6FF76
:1009600043C0F7FF424A432A08000001F5CFC2F016
:100970000001C251000AD8B494D3660AD8B4EBD7A8
:1009800083D3070E0001B215D8B431D30001B2A948
:1009900006D0000E0001BE6F060E0001BD6FA7C09D
:1009A000D9FFA8C0DAFF0001DECFBFF00001DECF23
:1009B000C0F00001DDCFC1F0030E0001A727000E3B
:1009C0000001A8230001C151800A800F07E1000E39
:1009D0000001C05D03E1000E0001BF5DD8B011D081
:1009E000BFC001F0C0C002F0C1C003F09CEC14F025
:1009F00001C0BFF002C0C0F003C0C1F0030E00018F
:100A0000B113000E0001BC6F000E0001BB6F7F0E22
:100A10000001C1150001C0110001BF11D8B497D069
:100A2000820E476EFF0E486E0001BFC049F0000104
:100A3000C0C04AF00001C1C04BF00001C2C04CF080
:100A4000100E05D0D8904C324B324A324932E82E43
:100A5000F9D7495047240001BB6F000E4820000120
:100A6000BC6F0001BB07D8A0BC07BBC00FF0BCC067
:100A700010F0000E126E030E116E89EC14F00FC010
:100A8000BBF010C0BCF0BBC007F0BCC008F0000E4B
:100A90000A6E0A0E096EDAEC11F007C0BBF008C04E
:100AA000BCF00001BC51800AF36E800EF35C000EB6
:100AB000D8B4BB5DD8B004D00001BB07D8A0BC0738
:100AC0000001BB51000858EC08F024C0B3F025C069
:100AD000B4F026C0B5F0B3C015F0B4C016F0B5C080
:100AE00017F0BFC018F0C0C019F0C1C01AF0FBEC7D
:100AF0000EF015C0B3F016C0B4F017C0B5F0B3C017
:100B000001F0B4C002F0B5C003F0000E046E800E18
:100B1000056E3F0E066E74EC12F0D8B005D00001E1
:100B2000BB07D8A0BC0713D0B3C001F0B4C002F01B
:100B3000B5C003F0000E046E200E056E410E066E69
:100B400074EC12F0D8A003D00001BB4BBC2B000109
:100B5000BE51800AF36E800EF35C0D0ED8B4BD5DFD
:100B6000D8B018D0BFC02EF0C0C02FF0C1C030F038
:100B70000001BD513FEC0AF024C031F025C032F035
:100B800026C033F05CEC0BF02EC0BFF02FC0C0F0DD
:100B900030C0C1F00001BC51800AF36E800EF35CDE
:100BA0000A0ED8B4BB5DD8B028D07F0E0001C115A5
:100BB0000001C0110001BF11D8B46BD0BFC02BF031
:100BC000C0C02CF0C1C02DF06DEC0FF02BC047F071
:100BD0002CC048F02DC049F02EC04AF04A504710B2
:100BE00048104910D8A455D00001BC51800A800F8C
:100BF000020ED8B4BB5DD8A04CD0B3C001F0B4C0D5
:100C000002F0B5C003F0700E046E890E056E400E42
:100C1000066E74EC12F0D8B003D00001F70E02D0CB
:100C20000001F80E0001BB27FF0E0001BC230001EC
:100C3000BB5158EC08F024C0B3F025C0B4F026C076
:100C4000B5F0BFC001F0C0C002F0C1C003F0B3C036
:100C500004F0B4C005F0B5C006F07BEC0EF001C0A6
:100C6000A3F002C0A4F003C0A5F004C0A6F0A3C086
:100C7000B6F0A4C0B7F0A5C0B8F0A6C0B9F0000E99
:100C80000001BF6F000E0001C06F000E0001C16FB8
:100C900034D0BFC02BF0C0C02CF0C1C02DF06DEC23
:100CA0000FF02BC0B6F02CC0B7F02DC0B8F02EC09E
:100CB000B9F0BFC03AF0C0C03BF0C1C03CF0B6C014
:100CC00009F0B7C00AF0B8C00BF0B9C00CF062EC84
:100CD00013F009C03DF00AC03EF00BC03FF0F9EC44
:100CE00013F03AC0BFF03BC0C0F03CC0C1F0000EF2
:100CF0000001BC6F000E0001BB6F010E0001C26F4E
:100D00000001C2510A0AD8B41ED00001C251040D1C
:100D1000010EF324F66E080EF420F76E0900F5506C
:100D20000001B65D0900F5500001B7590900F55002
:100D30000001B8590900F5500001B959D8A003D0F5
:100D40000001C22BDDD7030E0001B115476E000E66
:100D50000001B215486E48504710D8B451D040C079
:100D6000D9FF41C0DAFF2D0E48D0B6C001F0B7C0A0
:100D700002F0B8C003F0B9C004F00001C251040D84
:100D8000010EF324F66E080EF420F76E0900F5CF7D
:100D900005F00900F5CF06F00900F5CF07F00A00CD
:100DA000F5CF08F0BCEC12F001C0A9F002C0AAF027
:100DB00003C0ABF004C0ACF0A9C001F0AAC002F0BF
:100DC000ABC003F0ACC004F00A0E056E000E066E58
:100DD000000E076E000E086EFDEC12F001C0A9F0C7
:100DE00002C0AAF003C0ABF004C0ACF00001A951EE
:100DF000300F40C0D9FF41C0DAFFDF6E404A412AC0
:100E00000001C2070001C229D8B40DD0AED740C03E
:100E1000D9FF41C0DAFF300EDF6E404A412A00019F
:100E2000BB07D8A0BC070001BC51800AF36E800E3E
:100E3000F35C010ED8B4BB5DD8B0E9D70001BE5158
:100E4000800A800F090ED8B4BD5DD8A004D0080E6A
:100E50000001C26F02D0BDC0C2F00001C25100014A
:100E6000BD5F000E0001C2BFFF0E0001BE5B0001AE
:100E7000C251D8B408D040C0D9FF41C0DAFF2E0E0D
:100E8000DF6E404A412A0001C25158EC08F024C0EC
:100E9000A0F025C0A1F026C0A2F0BFC018F0C0C0CD
:100EA00019F0C1C01AF0A0C015F0A1C016F0A2C080
:100EB00017F0FBEC0EF015C02BF016C02CF017C08D
:100EC0002DF06DEC0FF02BC0B6F02CC0B7F02DC09C
:100ED000B8F02EC0B9F072D0B6C001F0B7C002F0C1
:100EE000B8C003F0B9C004F00001C251040D010EF6
:100EF000F324F66E080EF420F76E0900F5CF05F026
:100F00000900F5CF06F00900F5CF07F00A00F5CF8C
:100F100008F0BCEC12F001C0ADF002C0AEF003C0AE
:100F2000AFF004C0B0F0ADC001F0AEC002F0AFC091
:100F300003F0B0C004F00A0E056E000E066E000E3F
:100F4000076E000E086EFDEC12F001C0ADF002C09D
:100F5000AEF003C0AFF004C0B0F00001AD51300FEF
:100F600040C0D9FF41C0DAFFDF6E404A412AB6C017
:100F700001F0B7C002F0B8C003F0B9C004F000013E
:100F8000C251040D010EF324F66E080EF420F76E24
:100F90000900F5CF05F00900F5CF06F00900F5CFFF
:100FA00007F00A00F5CF08F0FDEC12F001C0B6F032
:100FB00002C0B7F003C0B8F004C0B9F00001C20726
:100FC0000001C229D8B40DD087D740C0D9FF41C095
:100FD000DAFF300EDF6E404A412A0001BD07D8A07B
:100FE000BE070001BE51BD11D8B44ED0EED70001EE
:100FF000BE51BD11D8A40AD00001B951B611B71124
:10100000B811D8A403D00001BD4BBE2B800E000147
:10101000C2BF7F0E476E0001BD510001C25D0001DD
:10102000BE51800A4758D8B003D0BDC0C2F018D016
:101030000001BE51800A476E0001C2510001BD5D32
:10104000800E0001C2BF7F0E4758D8B009D0000102
:10105000C2510001BD6F0001BE6B0001BDBFBE07E4
:10106000030E0001B115476E000E0001B215486E67
:1010700048504710D8B408D040C0D9FF41C0DAFF6B
:101080002D0EDF6E404A412A42C0F6FF43C0F7FFF3
:10109000424A432A08000001F5CFC2F00001C267AE
:1010A00002D440C0D9FF41C0DAFF000EDF6E12004B
:1010B0002A6E2AAEEAD02A6C2A50800A120FD8A0D3
:1010C0008BD0000E126E030E116E000E0A6E0A0E09
:1010D000096E000E046E640E036E2A50016E026AE1
:1010E00001BE02062CEC12F001C007F002C008F0AD
:1010F000DAEC11F0090E07240F6E000E0820106EB6
:1011000089EC14F0290E0F24F66E080E1020F76EED
:101110000900F5CF18F00900F5CF19F00A00F5CF56
:101120001AF0000E0A6E640E096E2A50076E086AE5
:1011300007BE0806DAEC11F0120E07240F6E000E3F
:101140000820106E000E126E030E116E89EC14F062
:10115000290E0F24F66E080E1020F76E0900F5CF49
:1011600015F00900F5CF16F00A00F5CF17F0FBECEB
:101170000EF015C027F016C028F017C029F027C0C0
:1011800015F028C016F029C017F0000E126E030EDD
:10119000116E000E046E0A0E036E2A50016E026A72
:1011A00001BE02062CEC12F001C00FF002C010F0DC
:1011B00089EC14F0290E0F24F66E080E1020F76E3D
:1011C0000900F5CF18F00900F5CF19F00A00F5CFA6
:1011D0001AF0FBEC0EF03AD12A50800A750FD8A015
:1011E0004DD0000E0A6E0A0E096E2A50076E086A6C
:1011F00007BE0806DAEC11F0090E07240F6E000E88
:101200000820106E000E126E030E116E89EC14F0A1
:10121000290E0F24F66E080E1020F76E0900F5CF88
:1012200015F00900F5CF16F00A00F5CF17F0000E03
:10123000126E030E116E000E046E0A0E036E2A501B
:10124000016E026A01BE02062CEC12F001C00FF022
:1012500002C010F089EC14F0290E0F24F66E080E6F
:101260001020F76E0900F5CF18F00900F5CF19F03E
:101270000A00F5CF1AF0FBEC0EF0E8D02A50030D6F
:10128000290EF324F66E080EEED02A50800A120FB3
:10129000D8A08BD0000E126E030E116E000E0A6ED7
:1012A0000A0E096E000E046E640E036E2A50016E63
:1012B000026A01BE02062CEC12F001C007F002C067
:1012C00008F0DAEC11F0090E07240F6E000E08206A
:1012D000106E89EC14F0500E0F24F66E080E1020DC
:1012E000F76E0900F5CF18F00900F5CF19F00A00E4
:1012F000F5CF1AF0000E0A6E640E096E2A50076EC2
:10130000086A07BE0806DAEC11F0120E07240F6E09
:10131000000E0820106E000E126E030E116E89EC86
:1013200014F0500E0F24F66E080E1020F76E090010
:10133000F5CF15F00900F5CF16F00A00F5CF17F03C
:10134000FBEC0EF015C027F016C028F017C029F0EE
:1013500027C015F028C016F029C017F0000E126E35
:10136000030E116E000E046E0A0E036E2A50016EFB
:10137000026A01BE02062CEC12F001C00FF002C09E
:1013800010F089EC14F0500E0F24F66E080E1020A9
:10139000F76E0900F5CF18F00900F5CF19F00A0033
:1013A000F5CF1AF0FBEC0EF051D02A50800A750FE1
:1013B000D8A053D0000E0A6E0A0E096E2A50076E8E
:1013C000086A07BE0806DAEC11F0090E07240F6E52
:1013D000000E0820106E000E126E030E116E89ECC6
:1013E00014F0500E0F24F66E080E1020F76E090050
:1013F000F5CF15F00900F5CF16F00A00F5CF17F07C
:10140000000E126E030E116E000E046E0A0E036EB5
:101410002A50016E026A01BE02062CEC12F001C0D5
:101420000FF002C010F089EC14F0500E0F24F66E8D
:10143000080E1020F76E0900F5CF18F00900F5CF5F
:1014400019F00A00F5CF1AF0FBEC0EF015C024F0ED
:1014500016C025F017C026F011D02A50030D500EEB
:10146000F324F66E080EF420F76E0900F5CF24F091
:101470000900F5CF25F00A00F5CF26F012002D6EF9
:101480006D0E2D6499D0000E126E030E116E000EBB
:101490000A6E0A0E096E000E046E640E036E2DC0F5
:1014A00001F0026A2CEC12F001C007F002C008F053
:1014B000DAEC11F0090E07240F6E000E0820106EF2
:1014C00089EC14F0290E0F24F66E080E1020F76E2A
:1014D0000900F5CF18F00900F5CF19F00A00F5CF93
:1014E0001AF0000E0A6E640E096E2DC007F0086A2D
:1014F000DAEC11F0120E07240F6E000E0820106EA9
:10150000000E126E030E116E89EC14F0290E0F24DA
:10151000F66E080E1020F76E0900F5CF15F00900E1
:10152000F5CF16F00A00F5CF17F0FBEC0EF015C062
:101530002AF016C02BF017C02CF0000E126E030E0E
:10154000116E000E046E0A0E036E2DC001F0026AC9
:101550002CEC12F001C00FF002C010F089EC14F076
:10156000290E0F24F66E080E1020F76E0900F5CF35
:1015700018F00900F5CF19F00A00F5CF1AF02AC0CB
:1015800015F02BC016F02CC017F0FBEC0EF015C0B8
:1015900027F016C028F017C029F027C015F028C082
:1015A00016F029C017F0000E186E000E196E3F0ECF
:1015B0001A6EFBEC0EF079D00A0E2D645DD0000E91
:1015C000126E030E116E000E046E0A0E036E2DC015
:1015D00001F0026A2CEC12F001C00FF002C010F012
:1015E00089EC14F0290E0F24F66E080E1020F76E09
:1015F0000900F5CF18F00900F5CF19F00A00F5CF72
:101600001AF0000E0A6E0A0E096E2DC007F0086A65
:10161000DAEC11F0090E07240F6E000E0820106E90
:10162000000E126E030E116E89EC14F0290E0F24B9
:10163000F66E080E1020F76E0900F5CF15F00900C0
:10164000F5CF16F00A00F5CF17F0FBEC0EF015C041
:101650002AF016C02BF017C02CF02AC015F02BC0B2
:1016600016F02CC017F0000E186E000E196E3F0E0B
:101670001A6EFBEC0EF019D02D50030D290EF32439
:10168000F66E080EF420F76E0900F5CF15F009008C
:10169000F5CF16F00A00F5CF17F0000E186E000E09
:1016A000196E3F0E1A6EFBEC0EF015C024F016C03A
:1016B00025F017C026F0120030C034F0356A366AC3
:1016C0002F34343601E335803450396E33C034F072
:1016D000356A366A3234343601E335803450386E38
:1016E0003950D8B40CD03850395CD8B00FD03950FC
:1016F00000083824346E190E345CD8A007D031C0ED
:101700002EF032C02FF033C030F0ABD03850D8B408
:101710000CD03950385CD8B00FD03850000839247C
:10172000346E190E345CD8A007D02EC02EF02FC016
:101730002FF030C030F095D0060E376E30BE378EA9
:1017400033BE378C2F8EFF0E2E16FF0E2F16000E77
:101750003016328EFF0E3116FF0E3216000E331683
:101760003850395CD8B01AD0D8903136323633364A
:10177000380638503918D8B40DD0370637C034F091
:10178000070E3416D8B406D0EFD7D89030322F32A7
:101790002E32392A38503962F8D71DD03950385C8A
:1017A000D8B019D0D8902E362F363036390638506A
:1017B0003918D8B40DD0370637C034F0070E3416B8
:1017C000D8B406D0EFD7D890333232323132382AFB
:1017D00038503962F8D737AE0CD0FF0E2E1AFF0EF4
:1017E0002F1AFF0E301A010E2E26000E2F22000E89
:1017F000302237AC0CD0FF0E311AFF0E321AFF0E1A
:10180000331A010E3126000E3222000E3322000E52
:10181000376E2E5031262F5032223050332233AEC5
:101820000ED0FF0E311AFF0E321AFF0E331A010EC0
:101830003126000E3222000E3322010E376E31C0E7
:1018400001F032C002F033C003F039C004F037C0F9
:1018500005F090EC10F001C02EF002C02FF003C094
:1018600030F01200000E0001D56F000E0001D46FA1
:101870000001D551800AF36E800EF35C0B0ED8B4D4
:10188000D45DD8A00CD0C30E5F6ECD0EE82EFED76F
:101890005F2EFCD700F00001D44BD52BE9D7800E8A
:1018A000016E080EBFEC14F0310EC86E14EC14F08B
:1018B0000C0EF7EC0DF0280EF7EC0DF0FD0E0A6E95
:1018C000010E0B6E030E0C6E0A0E0D6EFB0ED7ECA6
:1018D0000FF0010E516E080E536E7D0E526E030E08
:1018E0003AEC10F0000E516E080E536E800E526EE0
:1018F0000C0E3AEC10F0020E516E080E536E770E7D
:10190000526E030E3AEC10F0010E516E080E536E3B
:101910008A0E526E000E3AEC10F0010E516E88ECF9
:1019200011F04DC052F04EC053F0030E3AEC10F0DF
:10193000000E516E080E536E8E0E526E090E3AEC6A
:1019400010F0000E516E36EC11F04DC052F04EC04A
:1019500053F00B0E3AEC10F0020E516E080E536E5F
:10196000920E526E000E3AEC10F0020E516EE4EC44
:1019700010F04DC052F04EC053F0030E3AEC10F090
:10198000000E0001D66F630E0001D66501D0A1D70D
:10199000410E5F6EEE0EE82EFED75F2EFCD700D014
:1019A0000001D62B630E0001D665F2D792D701C095
:1019B00007F002C008F003C009F004C00AF0180ED6
:1019C00005D0D8900A32093208320732E82EF9D70A
:1019D0000750106E106601D06BD004C007F005C030
:1019E00008F006C009F007C00AF0180E05D0D8901C
:1019F0000A32093208320732E82EF9D707500F6E43
:101A00000F6601D055D0038EFF0E0116FF0E021691
:101A1000FF0E0316000E0416068EFF0E0416FF0EB0
:101A20000516FF0E0616000E0716000E0B6E000EB2
:101A30000C6E000E0D6E000E0E6E7F0E105E0F50BF
:101A4000A00F105E200E0F6ED8900B360C360D36A0
:101A50000E360450015C05500258065003580750DA
:101A60000458D8A009D00450015E0550025A06500F
:101A7000035A0750045A0B80D890013602360336B9
:101A800004360F2EE1D710AE10D01050800A076E2A
:101A9000E10E800A075CD8A00BD0D8900E320D3230
:101AA0000C320B32103EF9D714D01F0E10640FD039
:101AB000000E016E000E026E000E036E000E046E2C
:101AC00010D0D8900B360C360D360E361006106638
:101AD000F8D70BC001F00CC002F00DC003F00EC02F
:101AE00004F01200036E8A848A86016A03AE01D074
:101AF000012A010E0116013201328A5001187F0BB2
:101B000001188A6E03C001F0060E026ED8900132F1
:101B1000022EFCD7010E0116013A014601468A50F9
:101B20000118BF0B01188A6E03C001F0050E026E8A
:101B3000D8900132022EFCD7010E0116013A01465F
:101B40008A500118DF0B01188A6E03C001F0013AB8
:101B50000F0E0116010E0116013A8A500118EF0B03
:101B600001188A6E8A968A8603C001F0D8900132E5
:101B7000D8900132D8900132010E011601320132A3
:101B80008A5001187F0B01188A6E03C001F0D890AB
:101B90000132D8900132010E0116013A0146014688
:101BA0008A500118BF0B01188A6E03C001F0D8904B
:101BB0000132010E0116013A01468A500118DF0B6D
:101BC00001188A6E03C001F0010E0116013A8A5015
:101BD0000118EF0B01188A6E8A968A94210E016E05
:101BE000760EE82EFED7012EFCD700D01200036E31
:101BF0008A948A86016A03AE01D0012A010E011679
:101C0000013201328A5001187F0B01188A6E03C01D
:101C100001F0060E026ED8900132022EFCD7010EA2
:101C20000116013A014601468A500118BF0B0118FE
:101C30008A6E03C001F0050E026ED8900132022EAA
:101C4000FCD7010E0116013A01468A500118DF0B3C
:101C500001188A6E03C001F0013A0F0E0116010E41
:101C60000116013A8A500118EF0B01188A6E8A9604
:101C70008A8603C001F0D8900132D8900132D89002
:101C80000132010E0116013201328A5001187F0B18
:101C900001188A6E03C001F0D8900132D890013249
:101CA000010E0116013A014601468A500118BF0B88
:101CB00001188A6E03C001F0D8900132010E01169E
:101CC000013A01468A500118DF0B01188A6E03C0E1
:101CD00001F0010E0116013A8A500118EF0B0118AC
:101CE0008A6E8A96210E016E760EE82EFED7012EA0
:101CF000FCD700D0120003C007F0086A096A02345A
:101D0000073601E3088007500F6E0F6601D059D0E7
:101D100006C007F0086A096A0534073601E308803F
:101D200007500E6E0E6601D04CD0028EFF0E0116CB
:101D3000FF0E0216000E0316058EFF0E0416FF0E90
:101D40000516000E0616000E0A6E000E0B6E000E33
:101D50000C6E000E0D6E7F0E0F5E0E50980F0F5E14
:101D6000180E0E6ED8900A360B360C360D3604500F
:101D7000015C0550025806500358D8A007D0045003
:101D8000015E0550025A0650035A0A80D890013667
:101D9000023603360E2EE6D70FAE10D00F50800A53
:101DA000076EE90E800A075CD8A00BD0D8900D32E0
:101DB0000C320B320A320F3EF9D714D0170E0F64D3
:101DC0000FD0000E016E000E026E000E036E000EAC
:101DD000046E10D0D8900A360B360C360D360F062E
:101DE0000F66F8D70AC001F00BC002F00CC003F078
:101DF0000DC004F0120017C01BF01C6A1D6A1634D7
:101E00001B3601E31C801B501E6E1E6601D00CD0D9
:101E10001AC01BF01C6A1D6A19341B3601E31C80B2
:101E20001B50236E236607D0000E156E000E166E33
:101E3000000E176E51D023507B0F1E2617C023F0C3
:101E40001A50231A800E2316168E198EFF0E18169E
:101E5000FF0E1916000E1A16000E1F6E000E206ED1
:101E6000000E216E070E226E15A006D018501F26F8
:101E7000195020221A502122D890173216321532CA
:101E8000D890183619361A36222EEED7090E226E41
:101E900015A006D018501F26195020221A502122B2
:101EA000D890173216321532D890213220321F3294
:101EB000222EEED71FC001F020C002F021C003F097
:101EC0001EC004F023C005F090EC10F001C015F026
:101ED00002C016F003C017F012002DC02FF0306AB8
:101EE000316A2C342F3601E330802F50396E396639
:101EF00001D038D0170E2F6E2BC030F02CC031F02F
:101F00002DC032F02F28336E04D0D89032323132C7
:101F10003032332EFAD73050346E2C8EFF0E2B1603
:101F2000FF0E2C16000E2D162B50356E2C50366ED3
:101F30002D50376E386A8E0E395E39AE10D039505A
:101F4000800A2F6EF10E800A2F5CD8A00BD0D8909B
:101F50003832373236323532393EF9D714D0170E8F
:101F600039640FD0000E2B6E000E2C6E000E2D6EFD
:101F7000000E2E6E1BD0D8903536363637363836B2
:101F800039063966F8D73450D8B408D0381E371E11
:101F9000361E356C000E36223722382235C02BF023
:101FA00036C02CF037C02DF038C02EF012000F6E66
:101FB0000C5049EC14F00D0E0E6EFC0EE82EFED700
:101FC0000E2EFCD7000E056E2D0E046E000E076E51
:101FD000080E066E2FEC14F00D0E0E6EFC0EE82EA1
:101FE000FED70E2EFCD7000E056E1E0E046E0F508F
:101FF000066E076A06BE07062FEC14F00D0E0E6E75
:10200000FC0EE82EFED70E2EFCD7000E056E1F0E1E
:10201000046E0A50066E076A06BE07062FEC14F01F
:102020000D0E0E6EFC0EE82EFED70E2EFCD7000E07
:10203000056E200E046E0B50066E076A06BE07067C
:102040002FEC14F00D0E0E6EFC0EE82EFED70E2EA9
:10205000FCD7000E056E2C0E046E0DC006F0076A4C
:102060002FEC14F00D0E0E6EFC0EE82EFED70E2E89
:10207000FCD71200576E020EF7EC0DF05150020A19
:10208000D8A404D0C00EF7EC0DF003D0020EF7EC8C
:102090000DF0000E596E000E586E05D0140EF7ECC0
:1020A0000DF0584A592A5750546E556A5950800AB3
:1020B000566E5450585C5550800A5658D8B01CD0B3
:1020C000EDD752C0F6FF53C0F7FFF86A070EF7646A
:1020D00003D00800F55005D0F6CFE1FFF7CFE2FFBF
:1020E000E75072EC0DF0524A532A0D0E546EFC0E5E
:1020F000E82EFED7542EFCD752C0F6FF53C0F7FF90
:10210000F86A070EF76403D00800F55005D0F6CF43
:10211000E1FFF7CFE2FFE7500009D8B41200D1D7B2
:102120000450D8B405D0015002100310D8A40CD02C
:10213000000E016E000E026E000E036E44D0042AE3
:10214000D890033202320132000E0114066E000EE6
:102150000214076EFE0E0314086E065007100810D6
:10216000D8B40CD0ECD7042A010E0126000E0222AE
:10217000000E0322D890033202320132000E011405
:10218000066E000E0214076EFF0E0314086E065052
:1021900007100810D8B406D0E6D70406D890013648
:1021A0000236033602AEF9D704A0029ED89004325C
:1021B000045003120550D8A4038E01C001F002C0E0
:1021C00002F003C003F01200000E056E360E046E1E
:1021D00090EC13F00001D26F000E056E370E046E06
:1021E00090EC13F00001D36F0001D2510001D3C075
:1021F0004FF0506A4FC050F04F6A4F100001D06F3F
:1022000050500001D16FD0C009F0D1C00AF0B5EC38
:1022100013F009C015F00AC016F00BC017F0BA0E83
:10222000186E200E196E3D0E1A6EFBEC0EF015C0E6
:10223000CDF016C0CEF017C0CFF00001000E416EF9
:102240000001C30E406E080E436E850E426ECDC077
:1022500044F0CEC045F0CFC046F04CEC04F0000195
:10226000000E4E6E0001C30E4D6E1200000E056E84
:10227000340E046E90EC13F00001D26F000E056E68
:10228000350E046E90EC13F00001D36F0001D251B3
:102290000001D3C04FF0506A4FC050F04F6A4F104A
:1022A0000001D06F50500001D16FD0C009F0D1C0F3
:1022B0000AF0B5EC13F009C015F00AC016F00BC017
:1022C00017F0BA0E186E200E196E3D0E1A6EFBEC4A
:1022D0000EF015C0CDF016C0CEF017C0CFF0000143
:1022E000000E416E0001C30E406E080E436E850E57
:1022F000426ECDC044F0CEC045F0CFC046F04CECAD
:1023000004F00001000E4E6E0001C30E4D6E12006F
:10231000000E056E320E046E90EC13F00001D26FC9
:10232000000E056E330E046E90EC13F00001D36FB7
:102330000001D2510001D3C04FF0506A4FC050F09D
:102340004F6A4F100001D06F50500001D16FD0C0C4
:1023500009F0D1C00AF0B5EC13F009C015F00AC0BD
:1023600016F00BC017F0BA0E186E200E196E3D0E47
:102370001A6EFBEC0EF015C0CDF016C0CEF017C0F3
:10238000CFF00001000E416E0001C30E406E080E3A
:10239000436E850E426ECDC044F0CEC045F0CFC036
:1023A00046F04CEC04F00001000E4E6E0001C30E2E
:1023B0004D6E1200000E0C6E0A50800AF36E800EF5
:1023C000F35C000ED8B4095CD8B006D0096C0A1EC4
:1023D000D8B00A2A010E0C6E0850800AF36E800EE7
:1023E000F35C000ED8B4075CD8B006D0076C081EAA
:1023F000D8B0082A010E0C1A000E0E6E000E0D6EDB
:102400000A500910D8B41CD0010E0B6E04D0D8901D
:1024100009360A360B2A0AAEFAD7D8900D360E3690
:102420000950075C0A500858D8A005D00950075E2B
:102430000A50085A0D80D8900A3209320B2EEDD777
:102440000C50D8B404D00D6C0E1ED8B00E2A0DC09E
:1024500007F00EC008F01200000E066E0250800A4F
:10246000F36E800EF35C000ED8B4015CD8B006D0D9
:10247000016C021ED8B0022A010E066E0450800ABA
:10248000F36E800EF35C000ED8B4035CD8B004D0B9
:10249000036C041ED8B0042A04500310D8B418D01A
:1024A000010E056E04D0D89003360436052A04AE1A
:1024B000FAD70350015C04500258D8A004D003504E
:1024C000015E0450025AD89004320332052EF1D72F
:1024D0000650D8B404D0016C021ED8B0022A01C044
:1024E00001F002C002F0120003AE16D001C007F0E6
:1024F00002C008F003C009F0071E081E091E072AC3
:10250000000E08220922000E0724016E000E08208A
:10251000026E800E0920036E06AE16D004C007F0CE
:1025200005C008F006C009F0071E081E091E072A8C
:10253000000E08220922000E0724046E000E082057
:10254000056E800E0920066E000E011A000E021A9A
:10255000800E031A000E041A000E051A800E061AC9
:102560000450015C0550025806500358D8B002D000
:10257000D89001D0D8801200000E096E000E0A6EAD
:10258000000E0B6E000E0C6E0850051006100710A2
:10259000D8B42AD0010E0D6E06D0D8900536063676
:1025A000073608360D2A08AEF8D7D89009360A360D
:1025B0000B360C360550015C065002580750035884
:1025C00008500458D8A009D00550015E0650025AA0
:1025D0000750035A0850045A0980D890083207322D
:1025E000063205320D2EE1D709C001F00AC002F013
:1025F0000BC003F00CC004F01200085005100610C8
:102600000710D8B424D0010E096E06D0D890053634
:10261000063607360836092A08AEF8D70550015C99
:10262000065002580750035808500458D8A008D044
:102630000550015E0650025A0750035A0850045ACA
:10264000D8900832073206320532092EE7D701C08A
:1026500001F002C002F003C003F004C004F0120055
:10266000036E03C0C9FFC6BE2CD0C6CF02F00F0E4A
:1026700002160250080AD8B40FD0C6CF02F00F0ECF
:10268000021602500B0AD8B407D0C6889EA6FED701
:10269000C7B417D0C75015D0C6CF02F00F0E021620
:1026A0000250080AD8B408D0C6CF02F00F0E0216A6
:1026B00002500B0AD8A405D0C7B0FED7CEEC14F058
:1026C000C55012008E0E116E06D0D8900C320B320F
:1026D0000A320932112A000E09140D6E000E0A1476
:1026E0000E6E000E0B140F6EFF0E0C14106E1050B9
:1026F0000D100E100F10D8A4E8D709C001F00AC0C1
:1027000002F00BC003F011C004F0000E056E90EC57
:1027100010F001C009F002C00AF003C00BF0120073
:10272000CEEC14F0C580C5B0FED7CEEC14F0A60EEA
:1027300030EC13F0CEEC14F0045030EC13F0CEEC8F
:1027400014F0C582C5B2FED7A70E30EC13F0CEEC64
:1027500014F075EC14F0066EC58AC588C5B8FED7AE
:10276000C584C5B4FED706501200000E0C6E0A5088
:10277000800AF36E800EF35C000ED8B4095CD8B00A
:1027800006D0096C0A1ED8B00A2A010E0C6E09C0C8
:1027900001F00AC002F0036A8E0E046E0CC005F050
:1027A00090EC10F001C009F002C00AF003C00BF079
:1027B00012000C12120C0000000000000E010F119C
:1027C0000F0200000E111F100E0202040E10101155
:1027D0000E000C04060C04040E000204161911115C
:1027E000110002040E1111110E0002040E100E0150
:1027F0001E00000E3D1A000E3E1A800E3F1A3AC00F
:102800002EF03BC02FF03CC030F03DC031F03EC058
:1028100032F03FC033F05CEC0BF02EC03AF02FC02A
:102820003BF030C03CF01200939E939C939A939897
:10283000939693948A9E8A9C8A9A8A988A968A9476
:102840008A868A9E8A9C8A8A8A988A96210E016E36
:10285000760EE82EFED7012EFCD700D01200CEEC6B
:1028600014F0C580C5B0FED7CEEC14F0A60E30EC47
:1028700013F0CEEC14F0045030EC13F0CEEC14F066
:10288000065030EC13F0CEEC14F0C584C5A4120051
:10289000FDD7086E000E056E310E046E90EC13F03D
:1028A000096EF00E0916085009120986000E056E11
:1028B000310E046E09C006F0076A2FEC14F0120006
:1028C000B20EF66E270EF76E000EF86E00EE60F098
:1028D00010EE40F00900F5CFEEFFE550E150FAE1CF
:1028E000000EF86E000132EF0CF0C6CF01F00F0EB3
:1028F00001160150080AD8B407D0C6CF01F00F0E58
:10290000011601500B0AD8B4C586C7A0FED7C9501E
:1029100012000F501102F3CF13F0F4CF14F00F5048
:102920001202F350142610501102F350142613C053
:102930000FF014C010F012007F0E031402100110EB
:10294000D8B406D0000E011A000E021A800E031A27
:1029500001C001F002C002F003C003F01200036ED8
:10296000000E026E3A0E035CD8B005D02F0E036441
:1029700002D0010E026E02C001F001301200026EA0
:102980003F0EC716000EC66E000EC56E0250C61270
:102990000150C71293829380C68A1200C5CF01F0FE
:0C29A0001F0E0116D8B4C7B4F9D71200FE
:020000040020DA
:08000000FFFFFFFFFFFFFFFF00
:020000040030CA
:0E000000240E381EFF8181FF0FC00FE00F405D
:00000001FF
